{
  "abi": [
    {
      "inputs": [
        {
          "internalType": "address",
          "name": "_owner",
          "type": "address"
        }
      ],
      "stateMutability": "nonpayable",
      "type": "constructor"
    },
    {
      "stateMutability": "payable",
      "type": "fallback"
    },
    {
      "inputs": [
        {
          "internalType": "address",
          "name": "token",
          "type": "address"
        }
      ],
      "name": "recoverERC20",
      "outputs": [],
      "stateMutability": "nonpayable",
      "type": "function"
    },
    {
      "stateMutability": "payable",
      "type": "receive"
    }
  ],
  "bytecode": {
    "object": "0x608060405234801561001057600080fd5b5060405161040e38038061040e83398101604081905261002f91610054565b600080546001600160a01b0319166001600160a01b0392909216919091179055610084565b60006020828403121561006657600080fd5b81516001600160a01b038116811461007d57600080fd5b9392505050565b61037b806100936000396000f3fe6080604052600436106100225760003560e01c80639e8c708e146100f157610029565b3661002957005b6000546001600160a01b031633811461004157600380fd5b60003560601c60143560601c60283560801c60383560801c60483560f81c63a9059cbb60e01b607c52836080528260a0526000806044607c6000896113885a03f194508461008e57600380fd5b63022c0d9f60e01b607c528080156100ad57600181146100bb576100c5565b82608052600060a0526100c5565b60006080528260a0525b505050503060c052608060e05260008060a4607c6000856113885a03f1915050806100ef57600380fd5b005b3480156100fd57600080fd5b506100ef61010c3660046102c1565b6000546001600160a01b031633146101585760405162461bcd60e51b815260206004820152600a6024820152693bb937b733903ab9b2b960b11b60448201526064015b60405180910390fd5b6040516370a0823160e01b81523060048201526101d79033906001600160a01b038416906370a0823190602401602060405180830381865afa1580156101a2573d6000803e3d6000fd5b505050506040513d601f19601f820116820180604052508101906101c691906102f1565b6001600160a01b03841691906101da565b50565b604080516001600160a01b038481166024830152604480830185905283518084039091018152606490920183526020820180516001600160e01b031663a9059cbb60e01b17905291516000928616916102329161030a565b6000604051808303816000865af19150503d806000811461026f576040519150601f19603f3d011682016040523d82523d6000602084013e610274565b606091505b50509050806102bb5760405162461bcd60e51b81526020600482015260136024820152721cd85999551c985b9cd9995c8819985a5b1959606a1b604482015260640161014f565b50505050565b6000602082840312156102d357600080fd5b81356001600160a01b03811681146102ea57600080fd5b9392505050565b60006020828403121561030357600080fd5b5051919050565b6000825160005b8181101561032b5760208186018101518583015201610311565b8181111561033a576000828501525b50919091019291505056fea2646970667358221220b0720fab6d424e80b4f587bc73ff4e35b3db2242754fb1c6003f1409a9ad7eb164736f6c634300080f0033",
    "linkReferences": {}
  },
  "methodIdentifiers": {
    "recoverERC20(address)": "9e8c708e"
  },
  "id": 1
}