{
  "abi": [
    {
      "inputs": [
        {
          "internalType": "address",
          "name": "_owner",
          "type": "address"
        }
      ],
      "stateMutability": "nonpayable",
      "type": "constructor"
    },
    {
      "stateMutability": "payable",
      "type": "fallback"
    },
    {
      "inputs": [
        {
          "internalType": "address",
          "name": "token",
          "type": "address"
        }
      ],
      "name": "recoverERC20",
      "outputs": [],
      "stateMutability": "nonpayable",
      "type": "function"
    },
    {
      "stateMutability": "payable",
      "type": "receive"
    }
  ],
  "bytecode": {
    "object": "0x60a060405234801561001057600080fd5b5060405161043f38038061043f83398101604081905261002f91610040565b6001600160a01b0316608052610070565b60006020828403121561005257600080fd5b81516001600160a01b038116811461006957600080fd5b9392505050565b6080516103ae61009160003960008181602b015261012c01526103ae6000f3fe6080604052600436106100225760003560e01c80639e8c708e1461010657610029565b3661002957005b7f000000000000000000000000000000000000000000000000000000000000000033811461005657600380fd5b60003560601c60143560601c60283560801c60383560801c60483560f81c63a9059cbb60e01b607c52836080528260a0526000806044607c6000896113885a03f19450846100a357600380fd5b63022c0d9f60e01b607c528080156100c257600181146100d0576100da565b82608052600060a0526100da565b60006080528260a0525b505050503060c052608060e05260008060a4607c6000856113885a03f19150508061010457600380fd5b005b34801561011257600080fd5b506101046101213660046102f4565b336001600160a01b037f0000000000000000000000000000000000000000000000000000000000000000161461018b5760405162461bcd60e51b81526004016101829060208082526004908201526373686f6f60e01b604082015260600190565b60405180910390fd5b6040516370a0823160e01b815230600482015261020a9033906001600160a01b038416906370a0823190602401602060405180830381865afa1580156101d5573d6000803e3d6000fd5b505050506040513d601f19601f820116820180604052508101906101f99190610324565b6001600160a01b038416919061020d565b50565b604080516001600160a01b038481166024830152604480830185905283518084039091018152606490920183526020820180516001600160e01b031663a9059cbb60e01b17905291516000928616916102659161033d565b6000604051808303816000865af19150503d80600081146102a2576040519150601f19603f3d011682016040523d82523d6000602084013e6102a7565b606091505b50509050806102ee5760405162461bcd60e51b81526020600482015260136024820152721cd85999551c985b9cd9995c8819985a5b1959606a1b6044820152606401610182565b50505050565b60006020828403121561030657600080fd5b81356001600160a01b038116811461031d57600080fd5b9392505050565b60006020828403121561033657600080fd5b5051919050565b6000825160005b8181101561035e5760208186018101518583015201610344565b8181111561036d576000828501525b50919091019291505056fea26469706673582212209d5133aa06daa887581617f393f44b4e212edbb1e3229e291ab44909fcb9963164736f6c634300080f0033",
    "linkReferences": {}
  },
  "methodIdentifiers": {
    "recoverERC20(address)": "9e8c708e"
  },
  "id": 12
}