{
  "abi": [
    {
      "inputs": [
        {
          "internalType": "uint256",
          "name": "amountIn",
          "type": "uint256"
        },
        {
          "internalType": "address",
          "name": "targetPair",
          "type": "address"
        },
        {
          "internalType": "address",
          "name": "inputToken",
          "type": "address"
        },
        {
          "internalType": "address",
          "name": "outputToken",
          "type": "address"
        }
      ],
      "name": "calculateSwapV2",
      "outputs": [
        {
          "internalType": "uint256",
          "name": "amountOut",
          "type": "uint256"
        },
        {
          "internalType": "uint256",
          "name": "realAfterBalance",
          "type": "uint256"
        }
      ],
      "stateMutability": "nonpayable",
      "type": "function"
    },
    {
      "inputs": [
        {
          "internalType": "int256",
          "name": "amountIn",
          "type": "int256"
        },
        {
          "internalType": "address",
          "name": "targetPoolAddress",
          "type": "address"
        },
        {
          "internalType": "address",
          "name": "inputToken",
          "type": "address"
        },
        {
          "internalType": "address",
          "name": "outputToken",
          "type": "address"
        }
      ],
      "name": "calculateSwapV3",
      "outputs": [
        {
          "internalType": "uint256",
          "name": "amountOut",
          "type": "uint256"
        },
        {
          "internalType": "uint256",
          "name": "realAfterBalance",
          "type": "uint256"
        }
      ],
      "stateMutability": "nonpayable",
      "type": "function"
    },
    {
      "inputs": [
        {
          "internalType": "int256",
          "name": "amount0Delta",
          "type": "int256"
        },
        {
          "internalType": "int256",
          "name": "amount1Delta",
          "type": "int256"
        },
        {
          "internalType": "bytes",
          "name": "_data",
          "type": "bytes"
        }
      ],
      "name": "uniswapV3SwapCallback",
      "outputs": [],
      "stateMutability": "nonpayable",
      "type": "function"
    }
  ],
  "bytecode": {
    "object": "0x608060405234801561001057600080fd5b50610bd9806100206000396000f3fe608060405234801561001057600080fd5b50600436106100415760003560e01c80634b588d401461004657806381eeb93c14610072578063fa461e3314610085575b600080fd5b61005961005436600461085b565b61009a565b6040805192835260208301919091520160405180910390f35b61005961008036600461085b565b61021f565b6100986100933660046108ae565b6104e4565b005b600080846001600160a01b038085169086161082816100cd5773fffd8963efd1fc6a506488495d951d5263988d256100d4565b6401000276ad5b9050600082886040516020016100ff92919091151582526001600160a01b0316602082015260400190565b6040516020818303038152906040529050600080856001600160a01b031663128acb0830878f88886040518663ffffffff1660e01b815260040161014795949392919061097b565b60408051808303816000875af1158015610165573d6000803e3d6000fd5b505050506040513d601f19601f8201168201806040525081019061018991906109b6565b9150915084610198578161019a565b805b6101a3906109f0565b6040516370a0823160e01b81523060048201529098506001600160a01b038a16906370a0823190602401602060405180830381865afa1580156101ea573d6000803e3d6000fd5b505050506040513d601f19601f8201168201806040525081019061020e9190610a0c565b965050505050505094509492505050565b60405163a9059cbb60e01b81526001600160a01b03848116600483015260248201869052600091829185169063a9059cbb906044016020604051808303816000875af1158015610273573d6000803e3d6000fd5b505050506040513d601f19601f820116820180604052508101906102979190610a33565b50600080600080886001600160a01b0316630902f1ac6040518163ffffffff1660e01b8152600401606060405180830381865afa1580156102dc573d6000803e3d6000fd5b505050506040513d601f19601f820116820180604052508101906103009190610a73565b506001600160701b031691506001600160701b03169150866001600160a01b0316886001600160a01b0316101561033c57819350809250610343565b8093508192505b50506040516370a0823160e01b81526001600160a01b0388811660048301526000916103bf918591908a16906370a0823190602401602060405180830381865afa158015610395573d6000803e3d6000fd5b505050506040513d601f19601f820116820180604052508101906103b99190610a0c565b90610607565b90506103cc818484610668565b9450600080876001600160a01b0316896001600160a01b0316106103f2578660006103f6565b6000875b6040805160008152602081019182905263022c0d9f60e01b90915291935091506001600160a01b038b169063022c0d9f9061043a9085908590309060248101610ac3565b600060405180830381600087803b15801561045457600080fd5b505af1158015610468573d6000803e3d6000fd5b50506040516370a0823160e01b81523060048201526001600160a01b038b1692506370a082319150602401602060405180830381865afa1580156104b0573d6000803e3d6000fd5b505050506040513d601f19601f820116820180604052508101906104d49190610a0c565b9550505050505094509492505050565b60008413806104f35750600083135b6104fc57600080fd5b60008061050b83850185610afa565b91509150811561058c5760405163a9059cbb60e01b8152336004820152602481018790526001600160a01b0382169063a9059cbb906044016020604051808303816000875af1158015610562573d6000803e3d6000fd5b505050506040513d601f19601f820116820180604052508101906105869190610a33565b506105ff565b60405163a9059cbb60e01b8152336004820152602481018690526001600160a01b0382169063a9059cbb906044016020604051808303816000875af11580156105d9573d6000803e3d6000fd5b505050506040513d601f19601f820116820180604052508101906105fd9190610a33565b505b505050505050565b6000826106148382610b33565b91508111156106625760405162461bcd60e51b815260206004820152601560248201527464732d6d6174682d7375622d756e646572666c6f7760581b60448201526064015b60405180910390fd5b92915050565b60008084116106cd5760405162461bcd60e51b815260206004820152602b60248201527f556e697377617056324c6962726172793a20494e53554646494349454e545f4960448201526a1394155517d05353d5539560aa1b6064820152608401610659565b6000831180156106dd5750600082115b61073a5760405162461bcd60e51b815260206004820152602860248201527f556e697377617056324c6962726172793a20494e53554646494349454e545f4c604482015267495155494449545960c01b6064820152608401610659565b6000610748856103e5610787565b905060006107568285610787565b905060006107708361076a886103e8610787565b906107ee565b905061077c8183610b4a565b979650505050505050565b60008115806107ab5750828261079d8183610b6c565b92506107a99083610b4a565b145b6106625760405162461bcd60e51b815260206004820152601460248201527364732d6d6174682d6d756c2d6f766572666c6f7760601b6044820152606401610659565b6000826107fb8382610b8b565b91508110156106625760405162461bcd60e51b815260206004820152601460248201527364732d6d6174682d6164642d6f766572666c6f7760601b6044820152606401610659565b6001600160a01b038116811461085857600080fd5b50565b6000806000806080858703121561087157600080fd5b84359350602085013561088381610843565b9250604085013561089381610843565b915060608501356108a381610843565b939692955090935050565b600080600080606085870312156108c457600080fd5b8435935060208501359250604085013567ffffffffffffffff808211156108ea57600080fd5b818701915087601f8301126108fe57600080fd5b81358181111561090d57600080fd5b88602082850101111561091f57600080fd5b95989497505060200194505050565b6000815180845260005b8181101561095457602081850181015186830182015201610938565b81811115610966576000602083870101525b50601f01601f19169290920160200192915050565b6001600160a01b0386811682528515156020830152604082018590528316606082015260a06080820181905260009061077c9083018461092e565b600080604083850312156109c957600080fd5b505080516020909101519092909150565b634e487b7160e01b600052601160045260246000fd5b6000600160ff1b8201610a0557610a056109da565b5060000390565b600060208284031215610a1e57600080fd5b5051919050565b801515811461085857600080fd5b600060208284031215610a4557600080fd5b8151610a5081610a25565b9392505050565b80516001600160701b0381168114610a6e57600080fd5b919050565b600080600060608486031215610a8857600080fd5b610a9184610a57565b9250610a9f60208501610a57565b9150604084015163ffffffff81168114610ab857600080fd5b809150509250925092565b84815283602082015260018060a01b0383166040820152608060608201526000610af0608083018461092e565b9695505050505050565b60008060408385031215610b0d57600080fd5b8235610b1881610a25565b91506020830135610b2881610843565b809150509250929050565b600082821015610b4557610b456109da565b500390565b600082610b6757634e487b7160e01b600052601260045260246000fd5b500490565b6000816000190483118215151615610b8657610b866109da565b500290565b60008219821115610b9e57610b9e6109da565b50019056fea264697066735822122088a0fab3bb2856147f6122c04ee0a23c5e8205a3f4c0a59854c3e2634efbcd7e64736f6c634300080f0033",
    "linkReferences": {}
  },
  "methodIdentifiers": {
    "calculateSwapV2(uint256,address,address,address)": "81eeb93c",
    "calculateSwapV3(int256,address,address,address)": "4b588d40",
    "uniswapV3SwapCallback(int256,int256,bytes)": "fa461e33"
  },
  "id": 11
}